:100000000C9436000C945E000C945E000C945E0020
:100010000C945E000C945E000C945E000C945E00E8
:100020000C945E000C945E000C945E000C945E00D8
:100030000C945E000C945E000C94A0000C945E0086
:100040000C945E000C945E000C945E000C945E00B8
:100050000C945E000C945E000C945E000C945E00A8
:100060000C945E000C945E0022012F0111241FBE2F
:10007000CFEFD8E0DEBFCDBF11E0A0E0B1E0E2E815
:10008000FDE002C005900D92A033B107D9F721E041
:10009000A0E3B1E001C01D92A634B207E1F710E081
:1000A000C5E3D0E004C02197FE010E94AE06C43330
:1000B000D107C9F70E9486000C94B4060C94000086
:1000C000CF93DF93CDB7DEB784E290E024E230E057
:1000D000F90120812062FC01208384E490E022E089
:1000E000FC01208387E490E02AEFFC0120838EE668
:1000F00090E022E0FC012083789485E490E023E006
:10010000FC0120830000DF91CF910895CF93DF930E
:10011000CDB7DEB70E9460008091290190912A013D
:10012000982F80912801292F482F60E071E080E30B
:1001300091E00E947E0580E391E00E94AA05FBCF3A
:100140001F920F9200905F000F9211242F933F9304
:100150004F935F936F937F938F939F93AF93BF93CF
:10016000EF93FF93CF93DF93CDB7DEB78091440138
:1001700090914501019690934501809344018091AF
:100180004401909145019C01990F440B550B8091BE
:100190002B0190912C01A0912D01B0912E0182177D
:1001A0009307A407B50740F410924501109244014B
:1001B00080E391E00E944C060000DF91CF91FF9117
:1001C000EF91BF91AF919F918F917F916F915F91CF
:1001D0004F913F912F910F9000925F000F901F90D1
:1001E00018950F93CF93DF9300D000D0CDB7DEB733
:1001F0009A8389837C836B8389819A81019769F4CF
:100200008B819C81019649F405E026E047E06BE292
:1002100070E080E391E00E943C0189819A81892B02
:1002200041F48B819C81019621F480E391E00E944E
:10023000A40100000F900F900F900F90DF91CF91CD
:100240000F910895CF93DF93CDB7DEB76FEF7FEFB8
:1002500081E090E00E94F100DF91CF910895CF936B
:10026000DF93CDB7DEB76FEF7FEF80E090E00E94C5
:10027000F100DF91CF9108950F93CF93DF93CDB726
:10028000DEB727970FB6F894DEBF0FBECDBF9A83B7
:1002900089837C836B834D832E830F8389819A812D
:1002A0002B813C81FC013183208389819A812D81BE
:1002B000FC01228389819A812E81FC01238389811B
:1002C0009A812F81FC01248389819A810E94B10146
:1002D00089819A81FC01118689819A8121E0FC0142
:1002E000228B89819A8121E0FC01238B89819A816B
:1002F00021E0FC01248789819A8122E0FC01258785
:1003000089819A8124E0FC01268789819A8123E0F2
:10031000FC01278789819A8126E0FC01208B898155
:100320009A8125E0FC01218B89819A8127E0FC01DB
:10033000228B000027960FB6F894DEBF0FBECDBF0C
:10034000DF91CF910F910895CF93DF9300D0CDB778
:10035000DEB79A83898300000F900F90DF91CF91D1
:100360000895CF93DF9300D0CDB7DEB79A8389830A
:1003700089819A81FC018081918129813A81F901E9
:1003800020813181F9012081622F29813A81F9018F
:100390002281422F50E021E030E002C0220F331FC3
:1003A0004A95E2F720952623FC01208389819A81D2
:1003B000FC018081918129813A81F901208131817B
:1003C000F9012081622F29813A81F9012381422F8D
:1003D00050E021E030E002C0220F331F4A95E2F7DF
:1003E00020952623FC01208389819A81FC0180814C
:1003F000918129813A81F90120813181F90120819E
:10040000622F29813A81F9012481422F50E021E0B5
:1004100030E002C0220F331F4A95E2F720952623D1
:10042000FC01208389819A81FC01808191818597DB
:1004300009F046C084E290E024E230E0F901208136
:10044000622F29813A81F9012281422F50E021E077
:1004500030E002C0220F331F4A95E2F7262BFC0141
:10046000208384E290E024E230E0F9012081622FD1
:1004700029813A81F9012381422F50E021E030E0C7
:1004800002C0220F331F4A95E2F7262BFC0120837E
:1004900084E290E024E230E0F9012081622F29819A
:1004A0003A81F9012481422F50E021E030E002C07E
:1004B000220F331F4A95E2F7262BFC0120839BC0B5
:1004C00089819A81FC0180819181889709F046C0D9
:1004D00087E290E027E230E0F9012081622F298154
:1004E0003A81F9012281422F50E021E030E002C040
:1004F000220F331F4A95E2F7262BFC01208387E267
:1005000090E027E230E0F9012081622F29813A81D1
:10051000F9012381422F50E021E030E002C0220F98
:10052000331F4A95E2F7262BFC01208387E290E0F7
:1005300027E230E0F9012081622F29813A81F90117
:100540002481422F50E021E030E002C0220F331F0F
:100550004A95E2F7262BFC0120834DC089819A81C0
:10056000FC01808191818B9709F045C08AE290E07F
:100570002AE230E0F9012081622F29813A81F901D4
:100580002281422F50E021E030E002C0220F331FD1
:100590004A95E2F7262BFC0120838AE290E02AE2CA
:1005A00030E0F9012081622F29813A81F90123810C
:1005B000422F50E021E030E002C0220F331F4A9565
:1005C000E2F7262BFC0120838AE290E02AE230E069
:1005D000F9012081622F29813A81F9012481422F7A
:1005E00050E021E030E002C0220F331F4A95E2F7CD
:1005F000262BFC01208389819A8140E060E00E94E3
:10060000070300000F900F90DF91CF9108950F9393
:10061000CF93DF93CDB7DEB72D970FB6F894DEBF3B
:100620000FBECDBF9B878A876C874D8719821A8240
:100630001B828A859B85FC018285882F90E08170D2
:100640009927892B11F08D8589838A859B85FC01EB
:100650008285882F90E082709927892B11F08D85F3
:100660008A838A859B85FC018285882F90E084702F
:100670009927892B11F08D858B83898180958983BA
:100680008A8180958A838B8180958B83BE016A5F86
:100690007F4F8A859B8504E021E04C850E94E7031B
:1006A000BE016A5F7F4F8A859B8508E021E04A8111
:1006B0000E94E7038C85382F3295307FBE016A5F38
:1006C0007F4F8A859B8504E021E0432F0E94E7034A
:1006D000BE016A5F7F4F8A859B8508E020E04981E3
:1006E0000E94E703BE016A5F7F4F8A859B8508E011
:1006F00020E04B810E94E7031D821C828C819D813A
:100700000497FCF48E819F81A885B9852C813D8159
:10071000220F331F220F331F220F331F04C0B69541
:10072000A795979587952A95D2F7282F8A859B8537
:10073000622F0E94D8048C819D8101969D838C83B9
:10074000DDCF8A859B85FC01808191812A853B854F
:10075000F90120813181F9012081622F2A853B85B1
:10076000F9012481422F50E021E030E002C0220F45
:10077000331F4A95E2F7262BFC0120838A859B854F
:10078000FC01808191812A853B85F901208131819D
:10079000F9012081622F2A853B85F9012481422FAE
:1007A00050E021E030E002C0220F331F4A95E2F70B
:1007B00020952623FC01208300002D960FB6F89487
:1007C000DEBF0FBECDBFDF91CF910F9108950F9384
:1007D000CF93DF93CDB7DEB72D970FB6F894DEBF7A
:1007E0000FBECDBF98878F837A8769874B872C8709
:1007F0000D878C85882309F066C01A8219828D8541
:10080000282F30E089819A81821793070CF0C5C0A8
:1008100081E08D838B85282F30E08D81882F90E0BB
:10082000098002C0880F991F0A94E2F7822393235C
:10083000892B11F189859A85FC0180819181A281A2
:10084000B381880F991FAA1FBB1F29853A85F9011B
:1008500080839183A283B38389859A85FC018081FB
:100860009181A281B381816029853A85F9018083D4
:100870009183A283B38321C089859A85FC018081FD
:100880009181A281B381880F991FAA1FBB1F29855F
:100890003A85F90180839183A283B38389859A8500
:1008A000FC0180819181A281B3818E7F29853A8567
:1008B000F90180839183A283B38389819A81019610
:1008C0009A8389839CCF8C85813009F066C01C8215
:1008D0001B828D85282F30E08B819C8182179307A6
:1008E0000CF05BC080E88E838B85282F30E08E81F2
:1008F000882F90E00B8002C0959587950A94E2F7C7
:1009000082239323892B11F189859A85FC018081AB
:100910009181A281B381880F991FAA1FBB1F2985CE
:100920003A85F90180839183A283B38389859A856F
:10093000FC0180819181A281B381816029853A8502
:10094000F90180839183A283B38321C089859A852D
:10095000FC0180819181A281B381880F991FAA1F18
:10096000BB1F29853A85F90180839183A283B383D4
:1009700089859A85FC0180819181A281B3818E7FD6
:1009800029853A85F90180839183A283B3838B8182
:100990009C8101969C838B839CCF00002D960FB683
:1009A000F894DEBF0FBECDBFDF91CF910F910895B8
:1009B000CF93DF9300D000D000D0CDB7DEB79D83BA
:1009C0008C836E831A82198289819A8108970CF030
:1009D0008BC081E090E0098002C0880F991F0A94C3
:1009E000E2F78B839E818B8189238823F1F08C81B0
:1009F0009D81FC01808191812C813D81F9012081C3
:100A00003181F9012081622F2C813D81F901228100
:100A1000422F50E021E030E002C0220F331F4A9500
:100A2000E2F7262BFC0120831EC08C819D81FC01F6
:100A3000808191812C813D81F90120813181F901F1
:100A40002081622F2C813D81F9012281422F50E0CB
:100A500021E030E002C0220F331F4A95E2F72095D3
:100A60002623FC0120838C819D81FC018081918162
:100A70002C813D81F90120813181F9012081622F92
:100A80002C813D81F9012381422F50E021E030E0AB
:100A900002C0220F331F4A95E2F7262BFC01208368
:100AA0008C819D81FC01808191812C813D81F901A6
:100AB00020813181F9012081622F2C813D81F90152
:100AC0002381422F50E021E030E002C0220F331F8B
:100AD0004A95E2F720952623FC01208389819A819B
:100AE00001969A83898370CF000026960FB6F894FA
:100AF000DEBF0FBECDBFDF91CF910895CF93DF93BF
:100B000000D000D000D0CDB7DEB79A8389837C8334
:100B10006B834D832E8389819A812B813C81FC01DB
:100B20003683258389819A812D81FC0127838981E0
:100B30009A812E81FC01208789819A810E947B06FF
:100B4000000026960FB6F894DEBF0FBECDBFDF9132
:100B5000CF910895CF93DF9300D000D000D0CDB7D0
:100B6000DEB79E838D831A82198289819A810897C4
:100B70000CF088C081E090E0098002C0880F991FC6
:100B80000A94E2F78B838D819E81FC018581968199
:100B90002D813E81F9012781622F70E029813A8100
:100BA000629FA001639F500D729F500D11242D81F3
:100BB0003E81F9012185269526952695222F30E044
:100BC000240F351F820F931FFC0180818C838C8141
:100BD000882F90E02D813E81F9012185222F30E080
:100BE0002770332702C0880F991F2A95E2F78C835C
:100BF0008D819E81FC01858196812D813E81F90147
:100C00002781622F70E029813A81629FA001639F52
:100C1000500D729F500D11242D813E81F9012185C7
:100C2000269526952695222F30E02F5F3F4F240FE3
:100C3000351F820F931FFC018081882F90E02D814A
:100C40003E81F9012185222F30E02770332748E0CB
:100C500050E0BA01621B730B9B0102C0959587950A
:100C60002A95E2F7982F8C81892B8C838D819E8128
:100C70004C816B810E94070389819A8101969A8336
:100C8000898373CF000026960FB6F894DEBF0FBE9F
:100C9000CDBFDF91CF910895CF93DF9300D0CDB733
:100CA000DEB79A83898389819A81FC01818521E05D
:100CB000280F89819A81FC01218789819A81FC0111
:100CC0008185282F30E089819A81FC018085882FD9
:100CD00090E007972817390741F489819A810E948B
:100CE0007B0689819A81FC01118600000F900F908C
:100CF000DF91CF910895CF93DF9300D0CDB7DEB7CA
:100D00009A83898389819A81FC018389882F90E065
:100D100029813A81820F931F0B96FC0120818981E2
:100D20009A81FC01228789819A81FC01838921E0D3
:100D3000280F89819A81FC01238B89819A81FC018A
:100D40008389843029F489819A8121E0FC01238BF5
:100D500000000F900F90DF91CF910895EE0FFF1FCD
:100D60000590F491E02D099410E0C5E3D0E004C0B3
:100D7000FE010E94AE062196C633D107C9F7F8944A
:020D8000FFCFA3
:100D8200000000000000FBE73E000022088800008F
:100D9200220808000023CF08000022008800002259
:100DA2000888000023E70800052700FA0000000079
:00000001FF
