:100000000C9436000C945E000C945E000C945E0020
:100010000C945E000C945E000C945E000C945E00E8
:100020000C945E000C945E000C945E000C945E00D8
:100030000C945E000C945E000C949D000C945E0089
:100040000C945E000C945E000C945E000C945E00B8
:100050000C945E000C945E000C945E000C945E00A8
:100060000C945E000C945E001501220111241FBE49
:10007000CFEFD8E0DEBFCDBF11E0A0E0B1E0EEE50C
:10008000FCE002C005900D92AC35B107D9F721E034
:10009000ACE5B1E001C01D92A836B207E1F710E06F
:1000A000C5E3D0E004C02197FE010E941C06C433C2
:1000B000D107C9F70E9486000C9422060C94000018
:1000C000CF93DF93CDB7DEB784E290E024E230E057
:1000D000F90120812062FC01208384E490E022E089
:1000E000FC01208387E490E02AEFFC0120838EE668
:1000F00090E022E0FC012083789485E490E023E006
:10010000FC0120830000DF91CF910895CF93DF930E
:10011000CDB7DEB70E9460009091590180915801DF
:10012000292F482F60E071E08CE591E00E942305C3
:100130008CE591E00E944B05FBCF1F920F9200903F
:100140005F000F9211242F933F934F935F936F9310
:100150007F938F939F93AF93BF93EF93FF93CF932F
:10016000DF93CDB7DEB7809166019091670101966C
:10017000909367018093660180915A01282F30E0A7
:1001800080916601909167012817390744F4109215
:100190006701109266018CE591E00E94F105000074
:1001A000DF91CF91FF91EF91BF91AF919F918F918F
:1001B0007F916F915F914F913F912F910F9000929E
:1001C0005F000F901F9018950F93CF93DF9300D08F
:1001D00000D0CDB7DEB79A8389837C836B83898116
:1001E0009A81019769F48B819C81019649F405E01D
:1001F00026E047E06BE270E08CE591E00E942F0181
:1002000089819A81892B41F48B819C81019621F40B
:100210008CE591E00E946A0100000F900F900F9012
:100220000F90DF91CF910F910895CF93DF93CDB7CA
:10023000DEB76FEF7FEF81E090E00E94E400DF9196
:10024000CF910895CF93DF93CDB7DEB76FEF7FEFF8
:1002500080E090E00E94E400DF91CF9108950F9339
:10026000CF93DF93CDB7DEB727970FB6F894DEBFF5
:100270000FBECDBF9A8389837C836B834D832E838E
:100280000F8389819A812B813C81FC0131832083FA
:1002900089819A812D81FC01228389819A812E8115
:1002A000FC01238389819A812F81FC012483898128
:1002B0009A810E94770189819A81FC011186000050
:1002C00027960FB6F894DEBF0FBECDBFDF91CF915A
:1002D0000F910895CF93DF9300D0CDB7DEB79A8307
:1002E000898300000F900F90DF91CF9108950F93B5
:1002F000CF93DF9300D0CDB7DEB79A83898389810E
:100300009A81FC018081918129813A81F9012081C2
:100310003181F9012081622F29813A81F9012281FD
:10032000422F50E021E030E002C0220F331F4A95F7
:10033000E2F720952623FC01208389819A81FC0124
:100340008081918129813A81F90120813181F901EE
:100350002081622F29813A81F9012381422F50E0C7
:1003600021E030E002C0220F331F4A95E2F72095CA
:100370002623FC01208389819A81FC01808191815F
:1003800029813A81F90120813181F9012081622F8F
:1003900029813A81F9012481422F50E021E030E0A7
:1003A00002C0220F331F4A95E2F720952623FC0155
:1003B000208389819A81FC0180819181859709F050
:1003C00046C084E290E024E230E0F9012081622F0F
:1003D00029813A81F9012281422F50E021E030E069
:1003E00002C0220F331F4A95E2F7262BFC0120831F
:1003F00084E290E024E230E0F9012081622F29813B
:100400003A81F9012381422F50E021E030E002C01F
:10041000220F331F4A95E2F7262BFC01208384E24A
:1004200090E024E230E0F9012081622F29813A81B5
:10043000F9012481422F50E021E030E002C0220F78
:10044000331F4A95E2F7262BFC0120839BC089814C
:100450009A81FC0180819181889709F046C087E2EA
:1004600090E027E230E0F9012081622F29813A8172
:10047000F9012281422F50E021E030E002C0220F3A
:10048000331F4A95E2F7262BFC01208387E290E098
:1004900027E230E0F9012081622F29813A81F901B8
:1004A0002381422F50E021E030E002C0220F331FB1
:1004B0004A95E2F7262BFC01208387E290E027E2B1
:1004C00030E0F9012081622F29813A81F9012481EC
:1004D000422F50E021E030E002C0220F331F4A9546
:1004E000E2F7262BFC0120834DC089819A81FC0113
:1004F000808191818B9709F045C08AE290E02AE2E1
:1005000030E0F9012081622F29813A81F9012281AD
:10051000422F50E021E030E002C0220F331F4A9505
:10052000E2F7262BFC0120838AE290E02AE230E009
:10053000F9012081622F29813A81F9012381422F1B
:1005400050E021E030E002C0220F331F4A95E2F76D
:10055000262BFC0120838AE290E02AE230E0F901B8
:100560002081622F29813A81F9012481422F50E0B4
:1005700021E030E002C0220F331F4A95E2F7262B1C
:10058000FC01208389819A8100E020E040E060E066
:100590000E94D10200000F900F90DF91CF910F9138
:1005A00008950F93CF93DF93CDB7DEB72C970FB697
:1005B000F894DEBF0FBECDBF98878F8369874A87C7
:1005C0002B870C878A8580958A878B8580958B877A
:1005D0008C8580958C87BE016D5F7F4F8F8198855C
:1005E00004E021E049850E948C03BE016D5F7F4FCE
:1005F0008F81988508E021E04B850E948C038985D6
:10060000382F3295307FBE016D5F7F4F8F81988587
:1006100004E021E0432F0E948C03BE016D5F7F4FF9
:100620008F81988508E020E04A850E948C03BE01F6
:100630006D5F7F4F8F81988508E020E04C850E9498
:100640008C031A82198289819A810497FCF48B8128
:100650009C81AD81BE8129813A81220F331F220FF7
:10066000331F220F331F04C0B695A7959795879522
:100670002A95D2F7282F8F819885622F0E947D04BA
:1006800089819A8101969A838983DDCF8F819885AC
:10069000FC01808191812F813885F9012081318190
:1006A000F9012081622F2F813885F9012481422FA1
:1006B00050E021E030E002C0220F331F4A95E2F7FC
:1006C000262BFC0120838F819885FC0180819181FC
:1006D0002F813885F90120813181F9012081622F34
:1006E0002F813885F9012481422F50E021E030E04C
:1006F00002C0220F331F4A95E2F720952623FC0102
:10070000208300002C960FB6F894DEBF0FBECDBF3D
:10071000DF91CF910F9108950F93CF93DF93CDB7D2
:10072000DEB72D970FB6F894DEBF0FBECDBF98870A
:100730008F837A8769874B872C870D878C858823E1
:1007400009F066C01A8219828D85282F30E08981D0
:100750009A81821793070CF0C5C081E08D838B8549
:10076000282F30E08D81882F90E0098002C0880F0B
:10077000991F0A94E2F782239323892B11F189852B
:100780009A85FC0180819181A281B381880F991F94
:10079000AA1FBB1F29853A85F90180839183A28313
:1007A000B38389859A85FC0180819181A281B3817F
:1007B000816029853A85F90180839183A283B3837F
:1007C00021C089859A85FC0180819181A281B381B4
:1007D000880F991FAA1FBB1F29853A85F9018083BD
:1007E0009183A283B38389859A85FC01808191815D
:1007F000A281B3818E7F29853A85F9018083918317
:10080000A283B38389819A8101969A8389839CCF3D
:100810008C85813009F066C01C821B828D85282F53
:1008200030E08B819C81821793070CF05BC080E8DD
:100830008E838B85282F30E08E81882F90E00B806F
:1008400002C0959587950A94E2F782239323892B1A
:1008500011F189859A85FC0180819181A281B38102
:10086000880F991FAA1FBB1F29853A85F90180832C
:100870009183A283B38389859A85FC0180819181CC
:10088000A281B381816029853A85F90180839183B2
:10089000A283B38321C089859A85FC0180819181DF
:1008A000A281B381880F991FAA1FBB1F29853A8592
:1008B000F90180839183A283B38389859A85FC01A2
:1008C00080819181A281B3818E7F29853A85F9014A
:1008D00080839183A283B3838B819C8101969C83C7
:1008E0008B839CCF00002D960FB6F894DEBF0FBE11
:1008F000CDBFDF91CF910F910895CF93DF9300D0BB
:1009000000D000D0CDB7DEB79D838C836E831A8272
:10091000198289819A8108970CF08BC081E090E060
:10092000098002C0880F991F0A94E2F78B839E8189
:100930008B8189238823F1F08C819D81FC0180814A
:1009400091812C813D81F90120813181F901208142
:10095000622F2C813D81F9012281422F50E021E05C
:1009600030E002C0220F331F4A95E2F7262BFC012C
:1009700020831EC08C819D81FC01808191812C810E
:100980003D81F90120813181F9012081622F2C8183
:100990003D81F9012281422F50E021E030E002C088
:1009A000220F331F4A95E2F720952623FC0120836E
:1009B0008C819D81FC01808191812C813D81F90197
:1009C00020813181F9012081622F2C813D81F90143
:1009D0002381422F50E021E030E002C0220F331F7C
:1009E0004A95E2F7262BFC0120838C819D81FC0136
:1009F000808191812C813D81F90120813181F90132
:100A00002081622F2C813D81F9012381422F50E00A
:100A100021E030E002C0220F331F4A95E2F7209513
:100A20002623FC01208389819A8101969A838983F8
:100A300070CF000026960FB6F894DEBF0FBECDBF74
:100A4000DF91CF910895CF93DF9300D000D000D0F5
:100A5000CDB7DEB79A8389837C836B834D832E83E6
:100A600089819A812B813C81FC0136832583898190
:100A70009A812D81FC01278389819A812E81FC0135
:100A80002087000026960FB6F894DEBF0FBECDBFBC
:100A9000DF91CF9108950F93CF93DF9300D000D0D3
:100AA00000D0CDB7DEB79E838D831A8219828981EB
:100AB0009A8108970CF08AC081E090E0098002C01A
:100AC000880F991F0A94E2F78B838D819E81FC0128
:100AD000858196812D813E81F9012781622F70E009
:100AE00029813A81629FA001639F500D729F500D32
:100AF00011242D813E81F901218526952695269583
:100B0000222F30E0240F351F820F931FFC018081BC
:100B10008C838C81882F90E02D813E81F901218585
:100B2000222F30E02770332702C0880F991F2A95A3
:100B3000E2F78C838D819E81FC01858196812D81D8
:100B40003E81F9012781622F70E029813A81629FFD
:100B5000A001639F500D729F500D11242D813E8185
:100B6000F9012185269526952695222F30E02F5FC5
:100B70003F4F240F351F820F931FFC018081882F68
:100B800090E02D813E81F9012185222F30E02770F0
:100B9000332748E050E0BA01621B730B9B0102C08F
:100BA000959587952A95E2F7982F8C81892B8C83D0
:100BB0008D819E810C8120E040E06B810E94D102FA
:100BC00089819A8101969A83898371CF0000269644
:100BD0000FB6F894DEBF0FBECDBFDF91CF910F915E
:100BE0000895CF93DF9300D0CDB7DEB79A83898382
:100BF00089819A81FC01818521E0280F89819A8170
:100C0000FC01218789819A81FC018185282F30E0B0
:100C100089819A81FC018085882F90E007972817A9
:100C2000390721F489819A81FC01118600000F9017
:100C30000F90DF91CF910895EE0FFF1F0590F49173
:100C4000E02D099410E0C5E3D0E004C0FE010E944D
:0E0C50001C062196C633D107C9F7F894FFCFD2
:100C5E000000000088000088000050000020000006
:100C6E005000008800008800000000000000000016
:100C7E0000FA2FBCFA2F8000008368222228000081
:100C8E000082A8222148000000F22F3C208F000095
:100C9E0000822828214800000082282422280000F3
:0C0CAE0000FA2FA2222F80000315FA008C
:00000001FF
