:100000000C9434000C9449000C9449000C94490061
:100010000C9449000C9449000C9449000C9449003C
:100020000C9449000C9449000C9449000C9449002C
:100030000C9449000C9449000C9449000C9449001C
:100040000C9449000C9449000C9449000C9449000C
:100050000C9449000C9449000C9449000C944900FC
:100060000C9449000C94490011241FBECFEFD8E036
:10007000DEBFCDBF11E0A0E0B1E0ECEDF9E002C0E1
:1000800005900D92A034B107D9F70E944B000C9453
:10009000EC040C9400000F93CF93DF93CDB7DEB741
:1000A000CC54D1090FB6F894DEBF0FBECDBF80E4AB
:1000B000E0E0F1E0DE01189601900D928A95E1F7FB
:1000C00089E38D83CE01885B9F4F05E026E047E002
:1000D0006BE270E00E94FC0089E189831A821C8235
:1000E0001B828B819C8108970CF06EC081E090E0B0
:1000F0000B8002C0880F991F0A94E2F78E838A81D1
:10010000869586958695882F90E02B813C81220FDD
:10011000331F220F331F220F331FAE014F5F5F4F7C
:10012000240F351F820F931F0796FC0180818F8358
:100130008F81882F90E02A81222F30E0277033278B
:1001400002C0880F991F2A95E2F78F838A818695CE
:1001500086958695882F90E001962B813C81220F11
:10016000331F220F331F220F331FAE014F5F5F4F2C
:10017000240F351F820F931F0796FC018081882F63
:1001800090E02A81222F30E02770332748E050E0AA
:10019000BA01621B730B9B0102C0959587952A9546
:1001A000E2F7982F8F81892B8F83CE01885B9F4F39
:1001B0000F8120E040E06E810E949A028B819C8139
:1001C00001969C838B838DCF89818150898389811E
:1001D000882309F084CF8A818F5F8A838A81282FC0
:1001E00030E08D81882F90E007972817390709F4B0
:1001F0001A8289E1898373CF0F93CF93DF93CDB7B1
:10020000DEB727970FB6F894DEBF0FBECDBF9A8337
:1002100089837C836B834D832E830F8389819A81AD
:100220002B813C81FC013183208389819A812D813E
:10023000FC01228389819A812E81FC01238389819B
:100240009A812F81FC01248389819A810E94400137
:10025000000027960FB6F894DEBF0FBECDBFDF912A
:10026000CF910F910895CF93DF9300D0CDB7DEB734
:100270009A83898300000F900F90DF91CF910895AA
:100280000F93CF93DF9300D0CDB7DEB79A838983E6
:1002900089819A81FC018081918129813A81F901CA
:1002A00020813181F9012081622F29813A81F90170
:1002B0002281422F50E021E030E002C0220F331FA4
:1002C0004A95E2F720952623FC01208389819A81B3
:1002D000FC018081918129813A81F901208131815C
:1002E000F9012081622F29813A81F9012381422F6E
:1002F00050E021E030E002C0220F331F4A95E2F7C0
:1003000020952623FC01208389819A81FC0180812C
:10031000918129813A81F90120813181F90120817E
:10032000622F29813A81F9012481422F50E021E096
:1003300030E002C0220F331F4A95E2F720952623B2
:10034000FC01208389819A81FC01808191818597BC
:1003500009F046C084E290E024E230E0F901208117
:10036000622F29813A81F9012281422F50E021E058
:1003700030E002C0220F331F4A95E2F7262BFC0122
:10038000208384E290E024E230E0F9012081622FB2
:1003900029813A81F9012381422F50E021E030E0A8
:1003A00002C0220F331F4A95E2F7262BFC0120835F
:1003B00084E290E024E230E0F9012081622F29817B
:1003C0003A81F9012481422F50E021E030E002C05F
:1003D000220F331F4A95E2F7262BFC0120839BC096
:1003E00089819A81FC0180819181889709F046C0BA
:1003F00087E290E027E230E0F9012081622F298135
:100400003A81F9012281422F50E021E030E002C020
:10041000220F331F4A95E2F7262BFC01208387E247
:1004200090E027E230E0F9012081622F29813A81B2
:10043000F9012381422F50E021E030E002C0220F79
:10044000331F4A95E2F7262BFC01208387E290E0D8
:1004500027E230E0F9012081622F29813A81F901F8
:100460002481422F50E021E030E002C0220F331FF0
:100470004A95E2F7262BFC0120834DC089819A81A1
:10048000FC01808191818B9709F045C08AE290E060
:100490002AE230E0F9012081622F29813A81F901B5
:1004A0002281422F50E021E030E002C0220F331FB2
:1004B0004A95E2F7262BFC0120838AE290E02AE2AB
:1004C00030E0F9012081622F29813A81F9012381ED
:1004D000422F50E021E030E002C0220F331F4A9546
:1004E000E2F7262BFC0120838AE290E02AE230E04A
:1004F000F9012081622F29813A81F9012481422F5B
:1005000050E021E030E002C0220F331F4A95E2F7AD
:10051000262BFC01208389819A8100E020E040E0C5
:1005200060E00E949A0200000F900F90DF91CF913F
:100530000F9108950F93CF93DF93CDB7DEB72C972C
:100540000FB6F894DEBF0FBECDBF98878F83698743
:100550004A872B870C878A8580958A878B8580952B
:100560008B878C8580958C87BE016D5F7F4F8F81D7
:10057000988504E021E049850E945503BE016D5F26
:100580007F4F8F81988508E021E04B850E945503BD
:100590008985382F3295307FBE016D5F7F4F8F8107
:1005A000988504E021E0432F0E945503BE016D5F52
:1005B0007F4F8F81988508E020E04A850E9455038F
:1005C000BE016D5F7F4F8F81988508E020E04C85EC
:1005D0000E9455031A82198289819A810497FCF43A
:1005E0008B819C81AD81BE8129813A81220F331F8D
:1005F000220F331F220F331F04C0B695A79597957E
:1006000087952A95D2F7282F8F819885622F0E948F
:10061000460489819A8101969A838983DDCF8F81EF
:100620009885FC01808191812F813885F901208195
:100630003181F9012081622F2F813885F9012481D0
:10064000422F50E021E030E002C0220F331F4A95D4
:10065000E2F7262BFC0120838F819885FC018081A5
:1006600091812F813885F90120813181F901208123
:10067000622F2F813885F9012481422F50E021E03B
:1006800030E002C0220F331F4A95E2F7209526235F
:10069000FC01208300002C960FB6F894DEBF0FBE3D
:1006A000CDBFDF91CF910F9108950F93CF93DF933B
:1006B000CDB7DEB72D970FB6F894DEBF0FBECDBF16
:1006C00098878F837A8769874B872C870D878C85DE
:1006D000882309F066C01A8219828D85282F30E0A0
:1006E00089819A81821793070CF0C5C081E08D83C0
:1006F0008B85282F30E08D81882F90E0098002C003
:10070000880F991F0A94E2F782239323892B11F112
:1007100089859A85FC0180819181A281B381880FAE
:10072000991FAA1FBB1F29853A85F90180839183F0
:10073000A283B38389859A85FC0180819181A281FE
:10074000B381816029853A85F90180839183A283F1
:10075000B38321C089859A85FC0180819181A28122
:10076000B381880F991FAA1FBB1F29853A85F901FC
:1007700080839183A283B38389859A85FC018081DC
:100780009181A281B3818E7F29853A85F901808389
:100790009183A283B38389819A8101969A83898305
:1007A0009CCF8C85813009F066C01C821B828D85B0
:1007B000282F30E08B819C81821793070CF05BC05F
:1007C00080E88E838B85282F30E08E81882F90E003
:1007D0000B8002C0959587950A94E2F782239323B4
:1007E000892B11F189859A85FC0180819181A281F3
:1007F000B381880F991FAA1FBB1F29853A85F9016C
:1008000080839183A283B38389859A85FC0180814B
:100810009181A281B381816029853A85F901808324
:100820009183A283B38321C089859A85FC0180814D
:100830009181A281B381880F991FAA1FBB1F2985AF
:100840003A85F90180839183A283B38389859A8550
:10085000FC0180819181A281B3818E7F29853A85B7
:10086000F90180839183A283B3838B819C8101965C
:100870009C838B839CCF00002D960FB6F894DEBF2F
:100880000FBECDBFDF91CF910F910895CF93DF932E
:1008900000D000D000D0CDB7DEB79D838C836E83AF
:1008A0001A82198289819A8108970CF08BC081E0A5
:1008B00090E0098002C0880F991F0A94E2F78B83A9
:1008C0009E818B8189238823F1F08C819D81FC019D
:1008D000808191812C813D81F90120813181F90153
:1008E0002081622F2C813D81F9012281422F50E02D
:1008F00021E030E002C0220F331F4A95E2F7262B99
:10090000FC0120831EC08C819D81FC01808191812E
:100910002C813D81F90120813181F9012081622FF3
:100920002C813D81F9012281422F50E021E030E00D
:1009300002C0220F331F4A95E2F720952623FC01BF
:1009400020838C819D81FC01808191812C813D815E
:10095000F90120813181F9012081622F2C813D81B3
:10096000F9012381422F50E021E030E002C0220F44
:10097000331F4A95E2F7262BFC0120838C819D8151
:10098000FC01808191812C813D81F901208131819F
:10099000F9012081622F2C813D81F9012381422FB1
:1009A00050E021E030E002C0220F331F4A95E2F709
:1009B00020952623FC01208389819A8101969A83C0
:1009C000898370CF000026960FB6F894DEBF0FBE65
:0C09D000CDBFDF91CF910895F894FFCFC8
:1009DC00000000000000000000FA2FBCFA2F80007D
:1009EC0000836822222800000082A82221480000EF
:1009FC0000F22F3C208F00000082282821480000A4
:100A0C00008228242228000000FA2FA2222F800026
:00000001FF
