:100000000C9434000C9446000C9446000C9446006A
:100010000C9446000C9446000C9446000C94460048
:100020000C9446000C9446000C9446000C94460038
:100030000C9446000C9446000C946B000C94460003
:100040000C9446000C9446000C9446000C94460018
:100050000C9446000C9446000C9446000C94460008
:100060000C9446000C94460011241FBECFEFD8E03C
:10007000DEBFCDBF21E0A0E0B1E001C01D92A23003
:10008000B207E1F70E9448000C94A8000C9400000D
:10009000CF93DF93CDB7DEB784E290E024E230E087
:1000A000F90120812062FC01208384E490E022E0B9
:1000B000FC01208387E490E02AEFFC0120838EE698
:1000C00090E022E0FC012083789485E490E023E036
:1000D000FC012083FFCF1F920F9200905F000F92D0
:1000E00011242F933F938F939F93EF93FF93CF937D
:1000F000DF93CDB7DEB780910001909101010196A9
:100100009093010180930001809100019091010181
:100110008536910574F0109201011092000185E27C
:1001200090E025E230E0F901308120E22327FC0154
:1001300020830000DF91CF91FF91EF919F918F91EC
:100140003F912F910F9000925F000F901F90189594
:04015000F894FFCF51
:00000001FF
