:100000000C9436000C945E000C945E000C945E0020
:100010000C945E000C945E000C945E000C945E00E8
:100020000C945E000C945E000C945E000C945E00D8
:100030000C945E000C945E000C945E000C945E00C8
:100040000C945E000C945E000C945E000C945E00B8
:100050000C945E000C945E000C945E000C945E00A8
:100060000C945E000C945E002E023B0211241FBE15
:10007000CFEFD8E0DEBFCDBF11E0A0E0B1E0E2E31A
:10008000FBE002C005900D92A830B107D9F721E03E
:10009000A8E0B1E001C01D92AD30B207E1F710E079
:1000A000C5E3D0E004C02197FE010E948605C43359
:1000B000D107C9F70E94C6010C948C050C9400006E
:1000C000CF93DF93CDB7DEB72B970FB6F894DEBF93
:1000D0000FBECDBF98878F8369874A872B878A8514
:1000E000882309F066C01A8219828B85282F30E098
:1000F00089819A81821793070CF0C5C081E08D83B6
:100100008985282F30E08D81882F90E0098002C0FA
:10011000880F991F0A94E2F782239323892B11F108
:100120008F819885FC0180819181A281B381880FA4
:10013000991FAA1FBB1F2F813885F90180839183E6
:10014000A283B3838F819885FC0180819181A281F4
:10015000B38181602F813885F90180839183A283E7
:10016000B38321C08F819885FC0180819181A28118
:10017000B381880F991FAA1FBB1F2F813885F901F2
:1001800080839183A283B3838F819885FC018081D2
:100190009181A281B3818E7F2F813885F90180837F
:1001A0009183A283B38389819A8101969A838983FB
:1001B0009CCF8A85813009F066C01C821B828B85AA
:1001C000282F30E08B819C81821793070CF05BC055
:1001D00080E88E838985282F30E08E81882F90E0FB
:1001E0000B8002C0959587950A94E2F782239323AA
:1001F000892B11F18F819885FC0180819181A281E9
:10020000B381880F991FAA1FBB1F2F813885F90161
:1002100080839183A283B3838F819885FC01808141
:100220009181A281B38181602F813885F90180831A
:100230009183A283B38321C08F819885FC01808143
:100240009181A281B381880F991FAA1FBB1F2F81A3
:100250003885F90180839183A283B3838F81988548
:10026000FC0180819181A281B3818E7F2F813885AD
:10027000F90180839183A283B3838B819C81019652
:100280009C838B839CCF00002B960FB6F894DEBF27
:100290000FBECDBFDF91CF910895CF93DF93CDB740
:1002A000DEB72A970FB6F894DEBF0FBECDBF8F839F
:1002B000688749872A87888580958887898580957A
:1002C00089878A8580958A87CE01039624E041E05C
:1002D0006F810E946000CE01039628E041E06985AD
:1002E0000E9460008F81382F3295307FCE010396B7
:1002F00024E041E0632F0E946000CE01039628E0D5
:1003000040E068850E946000CE01039628E040E04E
:100310006A850E94600080E090E0AFE0B0EF8B83E0
:100320009C83AD83BE831A82198289819A811816B3
:10033000190614F18B819C81AD81BE8129813A819E
:10034000220F331F22953295307F3227207F3227AC
:1003500004C0B695A795979587952A95D2F79C01E5
:10036000AD0160E088E091E00E94E40389819A8118
:1003700001969A838983D9CF00002A960FB6F89404
:10038000DEBF0FBECDBFDF91CF910895CF93DF9336
:10039000CDB7DEB72B970FB6F894DEBF0FBECDBF3B
:1003A00088E0E0E0F1E0DE01149601900D928A957C
:1003B000E1F71A82198289819A810897D4F781E03E
:1003C00090E0098002C0880F991F0A94E2F78B839E
:1003D0009E012C5F3F4F89819A81820F931FFC0100
:1003E000808120E040E0682F8B810E944D0189814F
:1003F0009A8101969A838983DECF0F93CF93DF93FF
:1004000000D000D0CDB7DEB79A8389837C836B831D
:1004100089819A81019769F48B819C81019649F4C5
:1004200005E026E047E06BE270E088E091E00E94A2
:10043000480289819A81892B41F48B819C810196A4
:1004400021F488E091E00E947F0200000F900F905D
:100450000F900F90DF91CF910F910895CF93DF937D
:10046000CDB7DEB76FEF7FEF81E090E00E94FD0136
:10047000DF91CF910895CF93DF93CDB7DEB76FEFC4
:100480007FEF80E090E00E94FD01DF91CF91089521
:100490000F93CF93DF93CDB7DEB727970FB6F894BE
:1004A000DEBF0FBECDBF9A8389837C836B834D8370
:1004B0002E830F8389819A812B813C81FC013183BA
:1004C000208389819A812D81FC01228389819A81EF
:1004D0002E81FC01238389819A812F81FC01248351
:1004E00089819A810E948C02000027960FB6F894A9
:1004F000DEBF0FBECDBFDF91CF910F910895CF9397
:10050000DF9300D0CDB7DEB79A83898300000F90C8
:100510000F90DF91CF910895CF93DF9300D0CDB7A7
:10052000DEB79A83898389819A81FC0180819181D8
:1005300029813A81F90120813181F9012081622FDD
:1005400029813A81F9012281422F50E021E030E0F7
:1005500002C0220F331F4A95E2F720952623FC01A3
:10056000208389819A81FC018081918129813A814E
:10057000F90120813181F9012081622F29813A819D
:10058000F9012381422F50E021E030E002C0220F28
:10059000331F4A95E2F720952623FC0120838981A9
:1005A0009A81FC018081918129813A81F901208120
:1005B0003181F9012081622F29813A81F901248159
:1005C000422F50E021E030E002C0220F331F4A9555
:1005D000E2F720952623FC01208389819A81FC0182
:1005E00080819181859709F046C084E290E024E201
:1005F00030E0F9012081622F29813A81F9012281BD
:10060000422F50E021E030E002C0220F331F4A9514
:10061000E2F7262BFC01208384E290E024E230E024
:10062000F9012081622F29813A81F9012381422F2A
:1006300050E021E030E002C0220F331F4A95E2F77C
:10064000262BFC01208384E290E024E230E0F901D3
:100650002081622F29813A81F9012481422F50E0C3
:1006600021E030E002C0220F331F4A95E2F7262B2B
:10067000FC0120839BC089819A81FC01808191814A
:10068000889709F046C087E290E027E230E0F90160
:100690002081622F29813A81F9012281422F50E085
:1006A00021E030E002C0220F331F4A95E2F7262BEB
:1006B000FC01208387E290E027E230E0F90120810D
:1006C000622F29813A81F9012381422F50E021E0F4
:1006D00030E002C0220F331F4A95E2F7262BFC01BF
:1006E000208387E290E027E230E0F9012081622F49
:1006F00029813A81F9012481422F50E021E030E044
:1007000002C0220F331F4A95E2F7262BFC012083FB
:100710004DC089819A81FC01808191818B9709F07C
:1007200045C08AE290E02AE230E0F9012081622FA0
:1007300029813A81F9012281422F50E021E030E005
:1007400002C0220F331F4A95E2F7262BFC012083BB
:100750008AE290E02AE230E0F9012081622F2981CB
:100760003A81F9012381422F50E021E030E002C0BC
:10077000220F331F4A95E2F7262BFC0120838AE2E1
:1007800090E02AE230E0F9012081622F29813A814C
:10079000F9012481422F50E021E030E002C0220F15
:1007A000331F4A95E2F7262BFC01208389819A8129
:1007B00020E030E0A90160E00E94E40300000F9017
:1007C0000F90DF91CF910895CF93DF93CDB7DEB730
:1007D00060970FB6F894DEBF0FBECDBF9B878A87A8
:1007E0006C872D873E874F87588B8C85882309F02F
:1007F000A4C01A82198289819A8180970CF041C124
:1008000081E090E0098002C0880F991F0A94E2F706
:10081000092E000CAA0BBB0B8D839E83AF83B88778
:100820002D853E854F8558898D819E81AF81B88504
:1008300082239323A423B523892B8A2B8B2BF1F0BE
:100840008A859B85FC01808191812A853B85F90100
:1008500020813181F9012081622F2A853B85F901B0
:100860002281422F50E021E030E002C0220F331FEE
:100870004A95E2F7262BFC0120831EC08A859B85C2
:10088000FC01808191812A853B85F901208131819C
:10089000F9012081622F2A853B85F9012281422FAF
:1008A00050E021E030E002C0220F331F4A95E2F70A
:1008B00020952623FC0120838A859B85FC0180816D
:1008C00091812A853B85F90120813181F9012081BF
:1008D000622F2A853B85F9012381422F50E021E0D8
:1008E00030E002C0220F331F4A95E2F7262BFC01AD
:1008F00020838A859B85FC01808191812A853B85A7
:10090000F90120813181F9012081622F2A853B85FF
:10091000F9012381422F50E021E030E002C0220F94
:10092000331F4A95E2F720952623FC012083898115
:100930009A8101969A8389835ECF8C85813009F0F4
:10094000A0C087E090E09C838B838B819C8199235E
:100950000CF497C081E090E00B8002C0880F991FD3
:100960000A94E2F789878985282F30E040E050E03B
:100970008D859E85AF85B88982239323A423B523D3
:10098000892B8A2B8B2BF1F08A859B85FC0180813A
:1009900091812A853B85F90120813181F9012081EE
:1009A000622F2A853B85F9012281422F50E021E008
:1009B00030E002C0220F331F4A95E2F7262BFC01DC
:1009C00020831EC08A859B85FC01808191812A85B8
:1009D0003B85F90120813181F9012081622F2A852F
:1009E0003B85F9012281422F50E021E030E002C036
:1009F000220F331F4A95E2F720952623FC0120831E
:100A00008A859B85FC01808191812A853B85F9013E
:100A100020813181F9012081622F2A853B85F901EE
:100A20002381422F50E021E030E002C0220F331F2B
:100A30004A95E2F7262BFC0120838A859B85FC01E1
:100A4000808191812A853B85F90120813181F901DD
:100A50002081622F2A853B85F9012381422F50E0B6
:100A600021E030E002C0220F331F4A95E2F72095C3
:100A70002623FC0120838B819C8101979C838B839F
:100A800064CF8A859B85FC01808191812A853B8585
:100A9000F90120813181F9012081622F2A853B856E
:100AA000F9012481422F50E021E030E002C0220F02
:100AB000331F4A95E2F7262BFC0120838A859B850C
:100AC000FC01808191812A853B85F901208131815A
:100AD000F9012081622F2A853B85F9012481422F6B
:100AE00050E021E030E002C0220F331F4A95E2F7C8
:100AF00020952623FC01208380E060960FB6F894B1
:100B0000DEBF0FBECDBFDF91CF910895EE0FFF1F67
:100B10000590F491E02D099410E0C5E3D0E004C005
:100B2000FE010E9486052196C633D107C9F7F894C5
:020B3000FFCFF5
:080B32003C42A581A599423C5B
:00000001FF
